{
  "_format": "hh3-artifact-1",
  "contractName": "PayrollStream",
  "sourceName": "contracts/PayrollStream.sol",
  "abi": [
    {
      "inputs": [],
      "stateMutability": "nonpayable",
      "type": "constructor"
    },
    {
      "inputs": [],
      "name": "HandlesAlreadySavedForRequestID",
      "type": "error"
    },
    {
      "anonymous": false,
      "inputs": [
        {
          "indexed": true,
          "internalType": "address",
          "name": "user",
          "type": "address"
        },
        {
          "indexed": false,
          "internalType": "bytes32",
          "name": "publicKey",
          "type": "bytes32"
        }
      ],
      "name": "FHEKeyRegistered",
      "type": "event"
    },
    {
      "anonymous": false,
      "inputs": [
        {
          "indexed": true,
          "internalType": "uint256",
          "name": "streamId",
          "type": "uint256"
        },
        {
          "indexed": true,
          "internalType": "address",
          "name": "employee",
          "type": "address"
        },
        {
          "indexed": false,
          "internalType": "uint256",
          "name": "amount",
          "type": "uint256"
        }
      ],
      "name": "SalaryWithdrawn",
      "type": "event"
    },
    {
      "anonymous": false,
      "inputs": [
        {
          "indexed": true,
          "internalType": "uint256",
          "name": "streamId",
          "type": "uint256"
        },
        {
          "indexed": true,
          "internalType": "address",
          "name": "employer",
          "type": "address"
        },
        {
          "indexed": true,
          "internalType": "address",
          "name": "employee",
          "type": "address"
        },
        {
          "indexed": false,
          "internalType": "uint256",
          "name": "duration",
          "type": "uint256"
        }
      ],
      "name": "StreamCreated",
      "type": "event"
    },
    {
      "anonymous": false,
      "inputs": [
        {
          "indexed": true,
          "internalType": "uint256",
          "name": "streamId",
          "type": "uint256"
        }
      ],
      "name": "StreamPaused",
      "type": "event"
    },
    {
      "anonymous": false,
      "inputs": [
        {
          "indexed": true,
          "internalType": "uint256",
          "name": "streamId",
          "type": "uint256"
        }
      ],
      "name": "StreamResumed",
      "type": "event"
    },
    {
      "anonymous": false,
      "inputs": [
        {
          "indexed": true,
          "internalType": "uint256",
          "name": "requestId",
          "type": "uint256"
        },
        {
          "indexed": true,
          "internalType": "uint256",
          "name": "streamId",
          "type": "uint256"
        },
        {
          "indexed": true,
          "internalType": "address",
          "name": "employee",
          "type": "address"
        }
      ],
      "name": "WithdrawalRequested",
      "type": "event"
    },
    {
      "inputs": [
        {
          "internalType": "address",
          "name": "employee",
          "type": "address"
        },
        {
          "internalType": "bytes32",
          "name": "inputHandle",
          "type": "bytes32"
        },
        {
          "internalType": "bytes",
          "name": "inputProof",
          "type": "bytes"
        },
        {
          "internalType": "uint256",
          "name": "duration",
          "type": "uint256"
        },
        {
          "internalType": "bytes32",
          "name": "employeePublicKey",
          "type": "bytes32"
        }
      ],
      "name": "createStream",
      "outputs": [],
      "stateMutability": "payable",
      "type": "function"
    },
    {
      "inputs": [],
      "name": "emergencyPause",
      "outputs": [],
      "stateMutability": "nonpayable",
      "type": "function"
    },
    {
      "inputs": [],
      "name": "emergencyResume",
      "outputs": [],
      "stateMutability": "nonpayable",
      "type": "function"
    },
    {
      "inputs": [
        {
          "internalType": "address",
          "name": "",
          "type": "address"
        },
        {
          "internalType": "uint256",
          "name": "",
          "type": "uint256"
        }
      ],
      "name": "employeeStreams",
      "outputs": [
        {
          "internalType": "uint256",
          "name": "",
          "type": "uint256"
        }
      ],
      "stateMutability": "view",
      "type": "function"
    },
    {
      "inputs": [
        {
          "internalType": "address",
          "name": "",
          "type": "address"
        },
        {
          "internalType": "uint256",
          "name": "",
          "type": "uint256"
        }
      ],
      "name": "employerStreams",
      "outputs": [
        {
          "internalType": "uint256",
          "name": "",
          "type": "uint256"
        }
      ],
      "stateMutability": "view",
      "type": "function"
    },
    {
      "inputs": [
        {
          "internalType": "uint256",
          "name": "requestId",
          "type": "uint256"
        },
        {
          "internalType": "uint256[]",
          "name": "decryptedValues",
          "type": "uint256[]"
        }
      ],
      "name": "fulfillWithdrawal",
      "outputs": [],
      "stateMutability": "nonpayable",
      "type": "function"
    },
    {
      "inputs": [],
      "name": "getContractBalance",
      "outputs": [
        {
          "internalType": "uint256",
          "name": "",
          "type": "uint256"
        }
      ],
      "stateMutability": "view",
      "type": "function"
    },
    {
      "inputs": [
        {
          "internalType": "address",
          "name": "employee",
          "type": "address"
        }
      ],
      "name": "getEmployeeStreams",
      "outputs": [
        {
          "internalType": "uint256[]",
          "name": "",
          "type": "uint256[]"
        }
      ],
      "stateMutability": "view",
      "type": "function"
    },
    {
      "inputs": [
        {
          "internalType": "address",
          "name": "employer",
          "type": "address"
        }
      ],
      "name": "getEmployerStreams",
      "outputs": [
        {
          "internalType": "uint256[]",
          "name": "",
          "type": "uint256[]"
        }
      ],
      "stateMutability": "view",
      "type": "function"
    },
    {
      "inputs": [
        {
          "internalType": "uint256",
          "name": "streamId",
          "type": "uint256"
        }
      ],
      "name": "getEncryptedEarnedAmount",
      "outputs": [
        {
          "internalType": "bytes32",
          "name": "",
          "type": "bytes32"
        }
      ],
      "stateMutability": "nonpayable",
      "type": "function"
    },
    {
      "inputs": [
        {
          "internalType": "uint256",
          "name": "streamId",
          "type": "uint256"
        }
      ],
      "name": "getStream",
      "outputs": [
        {
          "internalType": "address",
          "name": "employer",
          "type": "address"
        },
        {
          "internalType": "address",
          "name": "employee",
          "type": "address"
        },
        {
          "internalType": "uint256",
          "name": "duration",
          "type": "uint256"
        },
        {
          "internalType": "uint256",
          "name": "startTime",
          "type": "uint256"
        },
        {
          "internalType": "uint256",
          "name": "totalWithdrawn",
          "type": "uint256"
        },
        {
          "internalType": "bool",
          "name": "active",
          "type": "bool"
        }
      ],
      "stateMutability": "view",
      "type": "function"
    },
    {
      "inputs": [
        {
          "internalType": "uint256",
          "name": "requestId",
          "type": "uint256"
        }
      ],
      "name": "getWithdrawalRequest",
      "outputs": [
        {
          "internalType": "uint256",
          "name": "streamId",
          "type": "uint256"
        },
        {
          "internalType": "address",
          "name": "employee",
          "type": "address"
        },
        {
          "internalType": "uint256",
          "name": "requestTime",
          "type": "uint256"
        },
        {
          "internalType": "bool",
          "name": "processed",
          "type": "bool"
        },
        {
          "internalType": "uint256",
          "name": "decryptedAmount",
          "type": "uint256"
        }
      ],
      "stateMutability": "view",
      "type": "function"
    },
    {
      "inputs": [
        {
          "internalType": "address",
          "name": "",
          "type": "address"
        }
      ],
      "name": "keyRegistered",
      "outputs": [
        {
          "internalType": "bool",
          "name": "",
          "type": "bool"
        }
      ],
      "stateMutability": "view",
      "type": "function"
    },
    {
      "inputs": [],
      "name": "nextStreamId",
      "outputs": [
        {
          "internalType": "uint256",
          "name": "",
          "type": "uint256"
        }
      ],
      "stateMutability": "view",
      "type": "function"
    },
    {
      "inputs": [],
      "name": "nextWithdrawalId",
      "outputs": [
        {
          "internalType": "uint256",
          "name": "",
          "type": "uint256"
        }
      ],
      "stateMutability": "view",
      "type": "function"
    },
    {
      "inputs": [],
      "name": "owner",
      "outputs": [
        {
          "internalType": "address",
          "name": "",
          "type": "address"
        }
      ],
      "stateMutability": "view",
      "type": "function"
    },
    {
      "inputs": [
        {
          "internalType": "uint256",
          "name": "streamId",
          "type": "uint256"
        }
      ],
      "name": "pauseStream",
      "outputs": [],
      "stateMutability": "nonpayable",
      "type": "function"
    },
    {
      "inputs": [],
      "name": "paused",
      "outputs": [
        {
          "internalType": "bool",
          "name": "",
          "type": "bool"
        }
      ],
      "stateMutability": "view",
      "type": "function"
    },
    {
      "inputs": [
        {
          "internalType": "bytes32",
          "name": "publicKey",
          "type": "bytes32"
        }
      ],
      "name": "registerFHEKey",
      "outputs": [],
      "stateMutability": "nonpayable",
      "type": "function"
    },
    {
      "inputs": [
        {
          "internalType": "uint256",
          "name": "streamId",
          "type": "uint256"
        }
      ],
      "name": "requestWithdrawal",
      "outputs": [],
      "stateMutability": "nonpayable",
      "type": "function"
    },
    {
      "inputs": [
        {
          "internalType": "uint256",
          "name": "streamId",
          "type": "uint256"
        }
      ],
      "name": "resumeStream",
      "outputs": [],
      "stateMutability": "nonpayable",
      "type": "function"
    },
    {
      "inputs": [
        {
          "internalType": "uint256",
          "name": "",
          "type": "uint256"
        }
      ],
      "name": "streams",
      "outputs": [
        {
          "internalType": "address",
          "name": "employer",
          "type": "address"
        },
        {
          "internalType": "address",
          "name": "employee",
          "type": "address"
        },
        {
          "internalType": "euint128",
          "name": "encryptedSalaryAmount",
          "type": "bytes32"
        },
        {
          "internalType": "uint256",
          "name": "duration",
          "type": "uint256"
        },
        {
          "internalType": "uint256",
          "name": "startTime",
          "type": "uint256"
        },
        {
          "internalType": "uint256",
          "name": "totalWithdrawn",
          "type": "uint256"
        },
        {
          "internalType": "bool",
          "name": "active",
          "type": "bool"
        },
        {
          "internalType": "bytes32",
          "name": "employeePublicKey",
          "type": "bytes32"
        }
      ],
      "stateMutability": "view",
      "type": "function"
    },
    {
      "inputs": [
        {
          "internalType": "address",
          "name": "",
          "type": "address"
        }
      ],
      "name": "userPublicKeys",
      "outputs": [
        {
          "internalType": "bytes32",
          "name": "",
          "type": "bytes32"
        }
      ],
      "stateMutability": "view",
      "type": "function"
    },
    {
      "inputs": [
        {
          "internalType": "uint256",
          "name": "",
          "type": "uint256"
        }
      ],
      "name": "withdrawalRequests",
      "outputs": [
        {
          "internalType": "uint256",
          "name": "streamId",
          "type": "uint256"
        },
        {
          "internalType": "address",
          "name": "employee",
          "type": "address"
        },
        {
          "internalType": "uint256",
          "name": "requestTime",
          "type": "uint256"
        },
        {
          "internalType": "bool",
          "name": "processed",
          "type": "bool"
        },
        {
          "internalType": "uint256",
          "name": "decryptedAmount",
          "type": "uint256"
        }
      ],
      "stateMutability": "view",
      "type": "function"
    },
    {
      "stateMutability": "payable",
      "type": "receive"
    }
  ],
  "bytecode": "0x608060405234801561000f575f80fd5b506008805462010000600160b01b031916336201000002179055600160068190556007556122b2806100405f395ff3fe60806040526004361061014a575f3560e01c8063894e9a0d116100b3578063a99b26c71161006d578063a99b26c7146104f2578063ae48565114610511578063d4d6808d14610567578063d624214f14610586578063ea1433c914610599578063fb6a984e146105b8575f80fd5b8063894e9a0d146103725780638da5cb5b146103cb57806390b734c714610408578063937b25811461043457806393c87f03146104bf5780639ee679e8146104d3575f80fd5b806354c85e601161010457806354c85e60146102115780635c975abb1461023057806364d60d911461025e57806368ab73c7146103135780636f9fb98a14610341578063746ff13d14610353575f80fd5b806303328c9b146101555780631e99d5691461018757806321837bbb1461019c5780634a9122e3146101bb5780634cd1f470146101d057806351858e27146101fb575f80fd5b3661015157005b5f80fd5b348015610160575f80fd5b5061017461016f366004611da6565b6105d7565b6040519081526020015b60405180910390f35b348015610192575f80fd5b5061017460065481565b3480156101a7575f80fd5b506101746101b6366004611dd8565b6106a7565b3480156101c6575f80fd5b5061017460075481565b3480156101db575f80fd5b506101746101ea366004611e00565b60046020525f908152604090205481565b348015610206575f80fd5b5061020f6106d2565b005b34801561021c575f80fd5b5061020f61022b366004611da6565b610730565b34801561023b575f80fd5b5060085461024e90610100900460ff1681565b604051901515815260200161017e565b348015610269575f80fd5b506102cb610278366004611da6565b5f60208190529081526040902080546001820154600283015460038401546004850154600586015460068701546007909701546001600160a01b03968716979690951695939492939192909160ff169088565b604080516001600160a01b03998a168152989097166020890152958701949094526060860192909252608085015260a0840152151560c083015260e08201526101000161017e565b34801561031e575f80fd5b5061024e61032d366004611e00565b60056020525f908152604090205460ff1681565b34801561034c575f80fd5b5047610174565b34801561035e575f80fd5b5061020f61036d366004611da6565b61078a565b34801561037d575f80fd5b5061039161038c366004611da6565b6108c1565b604080516001600160a01b0397881681529690951660208701529385019290925260608401526080830152151560a082015260c00161017e565b3480156103d6575f80fd5b506008546103f0906201000090046001600160a01b031681565b6040516001600160a01b03909116815260200161017e565b348015610413575f80fd5b50610427610422366004611e00565b6109c9565b60405161017e9190611e19565b34801561043f575f80fd5b5061048d61044e366004611da6565b600360208190525f91825260409091208054600182015460028301549383015460049093015491936001600160a01b0390911692909160ff9091169085565b604080519586526001600160a01b0390941660208601529284019190915215156060830152608082015260a00161017e565b3480156104ca575f80fd5b5061020f610a32565b3480156104de575f80fd5b5061020f6104ed366004611da6565b610a8c565b3480156104fd575f80fd5b5061042761050c366004611e00565b610cfd565b34801561051c575f80fd5b5061048d61052b366004611da6565b5f9081526003602081905260409091208054600182015460028301549383015460049093015491946001600160a01b03909116939260ff169190565b348015610572575f80fd5b5061020f610581366004611ea1565b610d64565b61020f610594366004611f4e565b61107f565b3480156105a4575f80fd5b506101746105b3366004611dd8565b61152e565b3480156105c3575f80fd5b5061020f6105d2366004611da6565b611547565b5f8160065481106106035760405162461bcd60e51b81526004016105fa90612007565b60405180910390fd5b8260065481106106255760405162461bcd60e51b81526004016105fa90612007565b5f81815260208190526040902080546001600160a01b0316331480610656575060018101546001600160a01b031633145b6106935760405162461bcd60e51b815260206004820152600e60248201526d139bdd08185d5d1a1bdc9a5e995960921b60448201526064016105fa565b5f61069d8661168a565b9695505050505050565b6002602052815f5260405f2081815481106106c0575f80fd5b905f5260205f20015f91509150505481565b6008546201000090046001600160a01b0316331461071f5760405162461bcd60e51b815260206004820152600a60248201526927b7363c9037bbb732b960b11b60448201526064016105fa565b6008805461ff001916610100179055565b335f8181526004602090815260408083208590556005825291829020805460ff1916600117905590518381527fdf87816afcce0982849032b22f2b269a9b72ea9f3a0589ab89c4f597704d8a7e910160405180910390a250565b8060065481106107ac5760405162461bcd60e51b81526004016105fa90612007565b600854610100900460ff16156107d45760405162461bcd60e51b81526004016105fa90612036565b5f82815260208190526040902080546001600160a01b0316331461083a5760405162461bcd60e51b815260206004820152601760248201527f4f6e6c7920656d706c6f7965722063616e20706175736500000000000000000060448201526064016105fa565b600681015460ff166108865760405162461bcd60e51b815260206004820152601560248201527414dd1c99585b48185b1c9958591e481c185d5cd959605a1b60448201526064016105fa565b60068101805460ff1916905560405183907fc1e14ec692cfc1a89cae539cb884be8d7cc39fd7a129fd73e0d59895fe48d2b8905f90a2505050565b5f805f805f808660065481106108e95760405162461bcd60e51b81526004016105fa90612007565b87600654811061090b5760405162461bcd60e51b81526004016105fa90612007565b5f81815260208190526040902080546001600160a01b031633148061093c575060018101546001600160a01b031633145b6109795760405162461bcd60e51b815260206004820152600e60248201526d139bdd08185d5d1a1bdc9a5e995960921b60448201526064016105fa565b5050505f968752505050602084905250506040909120805460018201546003830154600484015460058501546006909501546001600160a01b039485169794909316955090939092909160ff1690565b6001600160a01b0381165f90815260016020908152604091829020805483518184028101840190945280845260609392830182828015610a2657602002820191905f5260205f20905b815481526020019060010190808311610a12575b50505050509050919050565b6008546201000090046001600160a01b03163314610a7f5760405162461bcd60e51b815260206004820152600a60248201526927b7363c9037bbb732b960b11b60448201526064016105fa565b6008805461ff0019169055565b806006548110610aae5760405162461bcd60e51b81526004016105fa90612007565b600854610100900460ff1615610ad65760405162461bcd60e51b81526004016105fa90612036565b60085460ff1615610b295760405162461bcd60e51b815260206004820152601f60248201527f5265656e7472616e637947756172643a207265656e7472616e742063616c6c0060448201526064016105fa565b60088054600160ff1990911681179091555f838152602081905260409020908101546001600160a01b03163314610ba25760405162461bcd60e51b815260206004820152601a60248201527f4f6e6c7920656d706c6f7965652063616e20776974686472617700000000000060448201526064016105fa565b600681015460ff16610bc65760405162461bcd60e51b81526004016105fa90612062565b600780545f9182610bd6836120a4565b909155506040805160a081018252868152336020808301918252428385019081525f60608501818152608086018281528883526003948590529682209551865593516001860180546001600160a01b0319166001600160a01b03909216919091179055905160028501559151908301805460ff19169115159190911790559151600490910155909150610c688561168a565b6040805160018082528183019092529192505f91906020808301908036833701905050905081815f81518110610ca057610ca06120bc565b6020908102919091010152610cbc8163d4d6808d60e01b611783565b506040513390879085907faeebefaca28d3919b6f4ac09b6bc4c04fa151f0eb308e5ea8807baacef6a984d905f90a450506008805460ff1916905550505050565b6001600160a01b0381165f90815260026020908152604091829020805483518184028101840190945280845260609392830182828015610a2657602002820191905f5260205f2090815481526020019060010190808311610a125750505050509050919050565b3315610db25760405162461bcd60e51b815260206004820152601e60248201527f4f6e6c792046484520676174657761792063616e2063616c6c2074686973000060448201526064016105fa565b5f8281526003602081905260409091209081015460ff1615610e165760405162461bcd60e51b815260206004820152601960248201527f5265717565737420616c72656164792070726f6365737365640000000000000060448201526064016105fa565b6007548310610e5c5760405162461bcd60e51b8152602060048201526012602482015271125b9d985b1a59081c995c5d595cdd08125160721b60448201526064016105fa565b80545f908152602081905260409020600681015460ff16610e8f5760405162461bcd60e51b81526004016105fa90612062565b5f835f81518110610ea257610ea26120bc565b602002602001015190505f826005015482610ebd91906120d0565b90505f8111610f185760405162461bcd60e51b815260206004820152602160248201527f4e6f2066756e647320617661696c61626c6520666f72207769746864726177616044820152601b60fa1b60648201526084016105fa565b80471015610f685760405162461bcd60e51b815260206004820152601d60248201527f496e73756666696369656e7420636f6e74726163742062616c616e636500000060448201526064016105fa565b80836005015f828254610f7b91906120e3565b909155505060038401805460ff19166001908117909155600485018390558401546040515f916001600160a01b03169061c35090849084818181858888f193505050503d805f8114610fe8576040519150601f19603f3d011682016040523d82523d5f602084013e610fed565b606091505b50509050806110305760405162461bcd60e51b815260206004820152600f60248201526e151c985b9cd9995c8819985a5b1959608a1b60448201526064016105fa565b600185015485546040518481526001600160a01b03909216917f46c0e50c2dcb99ae50fd735adc3ab56564cedfb3095dbc692cae93aed63b484b9060200160405180910390a350505050505050565b600854610100900460ff16156110a75760405162461bcd60e51b81526004016105fa90612036565b60085460ff16156110fa5760405162461bcd60e51b815260206004820152601f60248201527f5265656e7472616e637947756172643a207265656e7472616e742063616c6c0060448201526064016105fa565b6008805460ff191660011790556001600160a01b03851661115d5760405162461bcd60e51b815260206004820152601860248201527f496e76616c696420656d706c6f7965652061646472657373000000000000000060448201526064016105fa565b336001600160a01b038616036111b55760405162461bcd60e51b815260206004820152601c60248201527f43616e6e6f74206372656174652073747265616d20746f2073656c660000000060448201526064016105fa565b5f82116112045760405162461bcd60e51b815260206004820152601960248201527f4475726174696f6e206d75737420626520706f7369746976650000000000000060448201526064016105fa565b5f341161124a5760405162461bcd60e51b81526020600482015260146024820152734d7573742066756e64207468652073747265616d60601b60448201526064016105fa565b335f9081526005602052604090205460ff166112a85760405162461bcd60e51b815260206004820152601760248201527f456d706c6f796572206e6f74207265676973746572656400000000000000000060448201526064016105fa565b6001600160a01b0385165f9081526005602052604090205460ff1661130f5760405162461bcd60e51b815260206004820152601760248201527f456d706c6f796565206e6f74207265676973746572656400000000000000000060448201526064016105fa565b835f61131b8286611796565b600680549192505f91908261132f836120a4565b919050559050604051806101000160405280336001600160a01b03168152602001896001600160a01b031681526020018381526020018681526020014281526020015f8152602001600115158152602001858152505f808381526020019081526020015f205f820151815f015f6101000a8154816001600160a01b0302191690836001600160a01b031602179055506020820151816001015f6101000a8154816001600160a01b0302191690836001600160a01b0316021790555060408201518160020155606082015181600301556080820151816004015560a0820151816005015560c0820151816006015f6101000a81548160ff02191690831515021790555060e0820151816007015590505060015f336001600160a01b03166001600160a01b031681526020019081526020015f2081908060018154018082558091505060019003905f5260205f20015f909190919091505560025f896001600160a01b03166001600160a01b031681526020019081526020015f2081908060018154018082558091505060019003905f5260205f20015f9091909190915055876001600160a01b0316336001600160a01b0316827f4396d7c3edc1447dac8dd2b7143af95840c926a210524a0d3198012c7fdf37c78860405161151291815260200190565b60405180910390a450506008805460ff19169055505050505050565b6001602052815f5260405f2081815481106106c0575f80fd5b8060065481106115695760405162461bcd60e51b81526004016105fa90612007565b600854610100900460ff16156115915760405162461bcd60e51b81526004016105fa90612036565b5f82815260208190526040902080546001600160a01b031633146115f75760405162461bcd60e51b815260206004820152601860248201527f4f6e6c7920656d706c6f7965722063616e20726573756d65000000000000000060448201526064016105fa565b600681015460ff161561164c5760405162461bcd60e51b815260206004820152601860248201527f53747265616d20697320616c726561647920616374697665000000000000000060448201526064016105fa565b60068101805460ff1916600117905560405183907fa5667ab2e05e1400eb0f467aa916600d98f5a2a45a69f02eb41da7469c51ce70905f90a2505050565b5f818152602081905260408120600681015460ff166116bb5760405162461bcd60e51b81526004016105fa90612062565b5f8160040154426116cc91906120d0565b905081600301548111156116e1575060038101545b5f8260030154116117345760405162461bcd60e51b815260206004820152601760248201527f4475726174696f6e2063616e6e6f74206265207a65726f00000000000000000060448201526064016105fa565b5f61175b836003015483620f424061174c91906120f6565b611756919061210d565b6117a9565b90505f611774846002015461176f846117bf565b6117cb565b905061069d81620f42406117f9565b5f61178f83835f61181e565b9392505050565b5f61178f83836006611939565b92915050565b5f6117a38267ffffffffffffffff166005611a46565b5f6117a3826006611af0565b5f826117dd576117da5f611b52565b92505b816117ee576117eb5f611b52565b91505b61178f83835f611b67565b5f8261180b576118085f611b52565b92505b61178f836001600160801b038416611c12565b7f878245876662ba28a480c5ea71726db859fb50222b0a3d7cbbc21cfa336faf0080545f8051602061225d8339815191528054604051637d6e912360e11b81529293926001600160a01b039091169063fadd224690611881908990600401612166565b5f604051808303815f87803b158015611898575f80fd5b505af11580156118aa573d5f803e3d5ffd5b5050506002820154604051633263b83b60e01b81526001600160a01b039091169150633263b83b9086906118e69087908b908b90600401612178565b5f604051808303818588803b1580156118fd575f80fd5b505af115801561190f573d5f803e3d5ffd5b505050505061191e8387611cb6565b8154825f61192b836120a4565b919050555050509392505050565b7f9e7b61f58c47dc699ac88507c4f5bb9f121c03808c5676a8078fe583e46497015460405163196d0b9b60e01b81525f915f8051602061225d833981519152916001600160a01b039091169063196d0b9b9061199f9088903390899089906004016121c9565b6020604051808303815f875af11580156119bb573d5f803e3d5ffd5b505050506040513d601f19601f820116820180604052508101906119df9190612231565b8154604051630f8e573b60e21b8152600481018390523360248201529193506001600160a01b031690633e395cec906044015f604051808303815f87803b158015611a28575f80fd5b505af1158015611a3a573d5f803e3d5ffd5b50505050509392505050565b7f9e7b61f58c47dc699ac88507c4f5bb9f121c03808c5676a8078fe583e464970154604051639cd07acb60e01b81525f915f8051602061225d833981519152916001600160a01b0390911690639cd07acb90611aa89087908790600401612248565b6020604051808303815f875af1158015611ac4573d5f803e3d5ffd5b505050506040513d601f19601f82011682018060405250810190611ae89190612231565b949350505050565b7f9e7b61f58c47dc699ac88507c4f5bb9f121c03808c5676a8078fe583e4649701546040516307227b9160e21b81525f915f8051602061225d833981519152916001600160a01b0390911690631c89ee4490611aa89087908790600401612248565b5f6117a3826001600160801b03166006611a46565b5f808215611b7a5750600160f81b611b7d565b505f5b5f5f8051602061225d8339815191526001810154604051630afe14ad60e31b815260048101899052602481018890526001600160f81b0319851660448201529192506001600160a01b0316906357f0a568906064016020604051808303815f875af1158015611bee573d5f803e3d5ffd5b505050506040513d601f19601f8201168201806040525081019061069d9190612231565b5f600160f81b815f8051602061225d8339815191526001810154604051635a53accb60e01b815260048101889052602481018790526001600160f81b0319851660448201529192506001600160a01b031690635a53accb906064016020604051808303815f875af1158015611c89573d5f803e3d5ffd5b505050506040513d601f19601f82011682018060405250810190611cad9190612231565b95945050505050565b5f8281527f878245876662ba28a480c5ea71726db859fb50222b0a3d7cbbc21cfa336faf0160205260409020547f878245876662ba28a480c5ea71726db859fb50222b0a3d7cbbc21cfa336faf009015611d2357604051633f06d22b60e01b815260040160405180910390fd5b5f83815260018201602090815260409091208351611d4392850190611d49565b50505050565b828054828255905f5260205f20908101928215611d82579160200282015b82811115611d82578251825591602001919060010190611d67565b50611d8e929150611d92565b5090565b5b80821115611d8e575f8155600101611d93565b5f60208284031215611db6575f80fd5b5035919050565b80356001600160a01b0381168114611dd3575f80fd5b919050565b5f8060408385031215611de9575f80fd5b611df283611dbd565b946020939093013593505050565b5f60208284031215611e10575f80fd5b61178f82611dbd565b602080825282518282018190525f9190848201906040850190845b81811015611e5057835183529284019291840191600101611e34565b50909695505050505050565b634e487b7160e01b5f52604160045260245ffd5b604051601f8201601f1916810167ffffffffffffffff81118282101715611e9957611e99611e5c565b604052919050565b5f8060408385031215611eb2575f80fd5b8235915060208084013567ffffffffffffffff80821115611ed1575f80fd5b818601915086601f830112611ee4575f80fd5b813581811115611ef657611ef6611e5c565b8060051b9150611f07848301611e70565b8181529183018401918481019089841115611f20575f80fd5b938501935b83851015611f3e57843582529385019390850190611f25565b8096505050505050509250929050565b5f805f805f60a08688031215611f62575f80fd5b611f6b86611dbd565b94506020808701359450604087013567ffffffffffffffff80821115611f8f575f80fd5b818901915089601f830112611fa2575f80fd5b813581811115611fb457611fb4611e5c565b611fc6601f8201601f19168501611e70565b91508082528a84828501011115611fdb575f80fd5b80848401858401375f908201909301929092525094979396509394606081013594506080013592915050565b60208082526015908201527414dd1c99585b48191bd95cc81b9bdd08195e1a5cdd605a1b604082015260600190565b60208082526012908201527110dbdb9d1c9858dd081a5cc81c185d5cd95960721b604082015260600190565b60208082526014908201527353747265616d206973206e6f742061637469766560601b604082015260600190565b634e487b7160e01b5f52601160045260245ffd5b5f600182016120b5576120b5612090565b5060010190565b634e487b7160e01b5f52603260045260245ffd5b818103818111156117a3576117a3612090565b808201808211156117a3576117a3612090565b80820281158282048414176117a3576117a3612090565b5f8261212757634e487b7160e01b5f52601260045260245ffd5b500490565b5f815180845260208085019450602084015f5b8381101561215b5781518752958201959082019060010161213f565b509495945050505050565b602081525f61178f602083018461212c565b838152606060208201525f612190606083018561212c565b905063ffffffff60e01b83166040830152949350505050565b605481106121c557634e487b7160e01b5f52602160045260245ffd5b9052565b8481525f602060018060a01b03861660208401526080604084015284518060808501525f5b8181101561220a5786810183015185820160a0015282016121ee565b505f60a0828601015260a0601f19601f83011685010192505050611cad60608301846121a9565b5f60208284031215612241575f80fd5b5051919050565b8281526040810161178f60208301846121a956fe9e7b61f58c47dc699ac88507c4f5bb9f121c03808c5676a8078fe583e4649700a264697066735822122097e809e561169ea773a2aaa46f744c08e820ea3ef474bfe53df5c4731401447964736f6c63430008180033",
  "linkReferences": {},
  "deployedLinkReferences": {},
  "immutableReferences": {},
  "inputSourceName": "project/contracts/PayrollStream.sol",
  "buildInfoId": "solc-0_8_24-bff2ff54f9a7055017ceadd68a23d8aa64121bc9"
}